{"abi":[{"type":"constructor","inputs":[{"name":"_relayer","type":"address","internalType":"address"}],"stateMutability":"nonpayable"},{"type":"function","name":"outcomeToRailTradeRef","inputs":[{"name":"","type":"bytes32","internalType":"bytes32"}],"outputs":[{"name":"","type":"bytes32","internalType":"bytes32"}],"stateMutability":"view"},{"type":"function","name":"relayer","inputs":[],"outputs":[{"name":"","type":"address","internalType":"address"}],"stateMutability":"view"},{"type":"function","name":"reverse","inputs":[{"name":"outcomeRef","type":"bytes32","internalType":"bytes32"},{"name":"encryptedTradeFieldsRef","type":"bytes32","internalType":"bytes32"},{"name":"assetToken","type":"address","internalType":"address"},{"name":"paymentToken","type":"address","internalType":"address"},{"name":"buyerDeposit","type":"address","internalType":"address"},{"name":"sellerDeposit","type":"address","internalType":"address"},{"name":"assetAmount","type":"uint256","internalType":"uint256"},{"name":"paymentAmount","type":"uint256","internalType":"uint256"}],"outputs":[],"stateMutability":"nonpayable"},{"type":"function","name":"reversedOutcomes","inputs":[{"name":"","type":"bytes32","internalType":"bytes32"}],"outputs":[{"name":"","type":"bool","internalType":"bool"}],"stateMutability":"view"},{"type":"function","name":"settle","inputs":[{"name":"outcomeRef","type":"bytes32","internalType":"bytes32"},{"name":"encryptedTradeFieldsRef","type":"bytes32","internalType":"bytes32"},{"name":"assetToken","type":"address","internalType":"address"},{"name":"paymentToken","type":"address","internalType":"address"},{"name":"buyerDeposit","type":"address","internalType":"address"},{"name":"sellerDeposit","type":"address","internalType":"address"},{"name":"assetAmount","type":"uint256","internalType":"uint256"},{"name":"paymentAmount","type":"uint256","internalType":"uint256"}],"outputs":[{"name":"railTradeRef","type":"bytes32","internalType":"bytes32"}],"stateMutability":"nonpayable"},{"type":"function","name":"settledOutcomes","inputs":[{"name":"","type":"bytes32","internalType":"bytes32"}],"outputs":[{"name":"","type":"bool","internalType":"bool"}],"stateMutability":"view"},{"type":"event","name":"Settled","inputs":[{"name":"outcomeRef","type":"bytes32","indexed":true,"internalType":"bytes32"},{"name":"encryptedTradeFieldsRef","type":"bytes32","indexed":false,"internalType":"bytes32"},{"name":"assetToken","type":"address","indexed":false,"internalType":"address"},{"name":"assetAmount","type":"uint256","indexed":false,"internalType":"uint256"},{"name":"paymentToken","type":"address","indexed":false,"internalType":"address"},{"name":"paymentAmount","type":"uint256","indexed":false,"internalType":"uint256"},{"name":"buyerDeposit","type":"address","indexed":false,"internalType":"address"},{"name":"sellerDeposit","type":"address","indexed":false,"internalType":"address"}],"anonymous":false},{"type":"error","name":"AlreadyReversed","inputs":[{"name":"outcomeRef","type":"bytes32","internalType":"bytes32"}]},{"type":"error","name":"NotRelayer","inputs":[]},{"type":"error","name":"NotSettled","inputs":[{"name":"outcomeRef","type":"bytes32","internalType":"bytes32"}]},{"type":"error","name":"OutcomeAlreadySettled","inputs":[{"name":"outcomeRef","type":"bytes32","internalType":"bytes32"}]},{"type":"error","name":"TransferFailed","inputs":[{"name":"token","type":"address","internalType":"address"},{"name":"from","type":"address","internalType":"address"},{"name":"to","type":"address","internalType":"address"},{"name":"amount","type":"uint256","internalType":"uint256"}]},{"type":"error","name":"ZeroAddress","inputs":[]}],"bytecode":{"object":"0x60a060405234801561000f575f80fd5b506040516108b43803806108b483398101604081905261002e91610066565b6001600160a01b0381166100555760405163d92e233d60e01b815260040160405180910390fd5b6001600160a01b0316608052610093565b5f60208284031215610076575f80fd5b81516001600160a01b038116811461008c575f80fd5b9392505050565b6080516107fc6100b85f395f818160c10152818161015d015261043c01526107fc5ff3fe608060405234801561000f575f80fd5b5060043610610060575f3560e01c80630c48d1d21461006457806368525fa91461009b5780638406c079146100bc578063ad3b80df146100fb578063c2ad4f7214610110578063f671b1c21461012f575b5f80fd5b61008661007236600461066f565b5f6020819052908152604090205460ff1681565b60405190151581526020015b60405180910390f35b6100ae6100a93660046106a1565b610151565b604051908152602001610092565b6100e37f000000000000000000000000000000000000000000000000000000000000000081565b6040516001600160a01b039091168152602001610092565b61010e6101093660046106a1565b610431565b005b6100ae61011e36600461066f565b60016020525f908152604090205481565b61008661013d36600461066f565b60026020525f908152604090205460ff1681565b5f336001600160a01b037f0000000000000000000000000000000000000000000000000000000000000000161461019b5760405163c64891a560e01b815260040160405180910390fd5b5f8981526020819052604090205460ff16156101d25760405163016b9b4560e01b8152600481018a90526024015b60405180910390fd5b6001600160a01b03871615806101ef57506001600160a01b038616155b8061020157506001600160a01b038516155b8061021357506001600160a01b038416155b156102315760405163d92e233d60e01b815260040160405180910390fd5b6040516323b872dd60e01b81526001600160a01b038816906323b872dd9061026190879089908890600401610717565b6020604051808303815f875af115801561027d573d5f803e3d5ffd5b505050506040513d601f19601f820116820180604052508101906102a1919061073b565b6102c6578684868560405163cd3f165960e01b81526004016101c99493929190610761565b6040516323b872dd60e01b81526001600160a01b038716906323b872dd906102f690889088908790600401610717565b6020604051808303815f875af1158015610312573d5f803e3d5ffd5b505050506040513d601f19601f82011682018060405250810190610336919061073b565b61035b578585858460405163cd3f165960e01b81526004016101c99493929190610761565b5f8981526020818152604091829020805460ff1916600117905581519081018b90526001600160a01b03898116928201929092528782166060820152868216608082015290851660a082015260c0810184905260e081018390526101000160408051601f1981840301815282825280516020918201205f8d81526001909252919020819055915089907f7877d744a4e50f090548e692d9ed4cba7d2a2a5438414979cad508804a5c3c389061041d908b908b9088908c9089908d908d9061078b565b60405180910390a298975050505050505050565b336001600160a01b037f0000000000000000000000000000000000000000000000000000000000000000161461047a5760405163c64891a560e01b815260040160405180910390fd5b5f8881526020819052604090205460ff166104ab57604051631d46cb0560e01b8152600481018990526024016101c9565b5f8881526002602052604090205460ff16156104dd5760405163f91850d960e01b8152600481018990526024016101c9565b6040516323b872dd60e01b81526001600160a01b038716906323b872dd9061050d90879087908790600401610717565b6020604051808303815f875af1158015610529573d5f803e3d5ffd5b505050506040513d601f19601f8201168201806040525081019061054d919061073b565b610572578584848460405163cd3f165960e01b81526004016101c99493929190610761565b6040516323b872dd60e01b81526001600160a01b038616906323b872dd906105a290869088908690600401610717565b6020604051808303815f875af11580156105be573d5f803e3d5ffd5b505050506040513d601f19601f820116820180604052508101906105e2919061073b565b610607578483858360405163cd3f165960e01b81526004016101c99493929190610761565b5f8881526002602052604090819020805460ff191660011790555188907f7877d744a4e50f090548e692d9ed4cba7d2a2a5438414979cad508804a5c3c389061065d908a908a9087908b9088908c908c9061078b565b60405180910390a25050505050505050565b5f6020828403121561067f575f80fd5b5035919050565b80356001600160a01b038116811461069c575f80fd5b919050565b5f805f805f805f80610100898b0312156106b9575f80fd5b88359750602089013596506106d060408a01610686565b95506106de60608a01610686565b94506106ec60808a01610686565b93506106fa60a08a01610686565b925060c0890135915060e089013590509295985092959890939650565b6001600160a01b039384168152919092166020820152604081019190915260600190565b5f6020828403121561074b575f80fd5b8151801515811461075a575f80fd5b9392505050565b6001600160a01b039485168152928416602084015292166040820152606081019190915260800190565b9687526001600160a01b039586166020880152604087019490945291841660608601526080850152821660a08401521660c082015260e0019056fea26469706673582212201ad921cee950c3fa6e641ab191cfb356b86e100a9c73fd03b281895c0904889064736f6c63430008180033","linkReferences":{}},"methodIdentifiers":{"outcomeToRailTradeRef(bytes32)":"c2ad4f72","relayer()":"8406c079","reverse(bytes32,bytes32,address,address,address,address,uint256,uint256)":"ad3b80df","reversedOutcomes(bytes32)":"f671b1c2","settle(bytes32,bytes32,address,address,address,address,uint256,uint256)":"68525fa9","settledOutcomes(bytes32)":"0c48d1d2"},"id":0}