{"abi":[{"type":"constructor","inputs":[{"name":"_relayer","type":"address","internalType":"address"}],"stateMutability":"nonpayable"},{"type":"function","name":"outcomeToRailTradeRef","inputs":[{"name":"","type":"bytes32","internalType":"bytes32"}],"outputs":[{"name":"","type":"bytes32","internalType":"bytes32"}],"stateMutability":"view"},{"type":"function","name":"outcomeToTxHash","inputs":[{"name":"","type":"bytes32","internalType":"bytes32"}],"outputs":[{"name":"","type":"bytes32","internalType":"bytes32"}],"stateMutability":"view"},{"type":"function","name":"relayer","inputs":[],"outputs":[{"name":"","type":"address","internalType":"address"}],"stateMutability":"view"},{"type":"function","name":"reverse","inputs":[{"name":"outcomeRef","type":"bytes32","internalType":"bytes32"},{"name":"encryptedTradeFieldsRef","type":"bytes32","internalType":"bytes32"},{"name":"assetToken","type":"address","internalType":"address"},{"name":"paymentToken","type":"address","internalType":"address"},{"name":"buyerDeposit","type":"address","internalType":"address"},{"name":"sellerDeposit","type":"address","internalType":"address"},{"name":"assetAmount","type":"uint256","internalType":"uint256"},{"name":"paymentAmount","type":"uint256","internalType":"uint256"}],"outputs":[],"stateMutability":"nonpayable"},{"type":"function","name":"reversedOutcomes","inputs":[{"name":"","type":"bytes32","internalType":"bytes32"}],"outputs":[{"name":"","type":"bool","internalType":"bool"}],"stateMutability":"view"},{"type":"function","name":"settle","inputs":[{"name":"outcomeRef","type":"bytes32","internalType":"bytes32"},{"name":"encryptedTradeFieldsRef","type":"bytes32","internalType":"bytes32"},{"name":"assetToken","type":"address","internalType":"address"},{"name":"paymentToken","type":"address","internalType":"address"},{"name":"buyerDeposit","type":"address","internalType":"address"},{"name":"sellerDeposit","type":"address","internalType":"address"},{"name":"assetAmount","type":"uint256","internalType":"uint256"},{"name":"paymentAmount","type":"uint256","internalType":"uint256"}],"outputs":[{"name":"railTradeRef","type":"bytes32","internalType":"bytes32"}],"stateMutability":"nonpayable"},{"type":"function","name":"settledOutcomes","inputs":[{"name":"","type":"bytes32","internalType":"bytes32"}],"outputs":[{"name":"","type":"bool","internalType":"bool"}],"stateMutability":"view"},{"type":"event","name":"Settled","inputs":[{"name":"outcomeRef","type":"bytes32","indexed":true,"internalType":"bytes32"},{"name":"encryptedTradeFieldsRef","type":"bytes32","indexed":false,"internalType":"bytes32"},{"name":"assetToken","type":"address","indexed":false,"internalType":"address"},{"name":"assetAmount","type":"uint256","indexed":false,"internalType":"uint256"},{"name":"paymentToken","type":"address","indexed":false,"internalType":"address"},{"name":"paymentAmount","type":"uint256","indexed":false,"internalType":"uint256"},{"name":"buyerDeposit","type":"address","indexed":false,"internalType":"address"},{"name":"sellerDeposit","type":"address","indexed":false,"internalType":"address"}],"anonymous":false},{"type":"error","name":"AlreadyReversed","inputs":[{"name":"outcomeRef","type":"bytes32","internalType":"bytes32"}]},{"type":"error","name":"NotRelayer","inputs":[]},{"type":"error","name":"NotSettled","inputs":[{"name":"outcomeRef","type":"bytes32","internalType":"bytes32"}]},{"type":"error","name":"OutcomeAlreadySettled","inputs":[{"name":"outcomeRef","type":"bytes32","internalType":"bytes32"}]},{"type":"error","name":"TransferFailed","inputs":[{"name":"token","type":"address","internalType":"address"},{"name":"from","type":"address","internalType":"address"},{"name":"to","type":"address","internalType":"address"},{"name":"amount","type":"uint256","internalType":"uint256"}]},{"type":"error","name":"ZeroAddress","inputs":[]}],"bytecode":{"object":"0x60a060405234801561000f575f80fd5b506040516108f73803806108f783398101604081905261002e91610066565b6001600160a01b0381166100555760405163d92e233d60e01b815260040160405180910390fd5b6001600160a01b0316608052610093565b5f60208284031215610076575f80fd5b81516001600160a01b038116811461008c575f80fd5b9392505050565b60805161083f6100b85f395f818160db01528181610196015261047f015261083f5ff3fe608060405234801561000f575f80fd5b506004361061007a575f3560e01c8063ad3b80df11610058578063ad3b80df14610115578063b1beccbd1461012a578063c2ad4f7214610149578063f671b1c214610168575f80fd5b80630c48d1d21461007e57806368525fa9146100b55780638406c079146100d6575b5f80fd5b6100a061008c3660046106b2565b5f6020819052908152604090205460ff1681565b60405190151581526020015b60405180910390f35b6100c86100c33660046106e4565b61018a565b6040519081526020016100ac565b6100fd7f000000000000000000000000000000000000000000000000000000000000000081565b6040516001600160a01b0390911681526020016100ac565b6101286101233660046106e4565b610474565b005b6100c86101383660046106b2565b60026020525f908152604090205481565b6100c86101573660046106b2565b60016020525f908152604090205481565b6100a06101763660046106b2565b60036020525f908152604090205460ff1681565b5f336001600160a01b037f000000000000000000000000000000000000000000000000000000000000000016146101d45760405163c64891a560e01b815260040160405180910390fd5b5f8981526020819052604090205460ff161561020b5760405163016b9b4560e01b8152600481018a90526024015b60405180910390fd5b6001600160a01b038716158061022857506001600160a01b038616155b8061023a57506001600160a01b038516155b8061024c57506001600160a01b038416155b1561026a5760405163d92e233d60e01b815260040160405180910390fd5b6040516323b872dd60e01b81526001600160a01b038816906323b872dd9061029a9088908890889060040161075a565b6020604051808303815f875af11580156102b6573d5f803e3d5ffd5b505050506040513d601f19601f820116820180604052508101906102da919061077e565b6102ff578685858560405163cd3f165960e01b815260040161020294939291906107a4565b6040516323b872dd60e01b81526001600160a01b038716906323b872dd9061032f9087908990879060040161075a565b6020604051808303815f875af115801561034b573d5f803e3d5ffd5b505050506040513d601f19601f8201168201806040525081019061036f919061077e565b610394578584868460405163cd3f165960e01b815260040161020294939291906107a4565b5f8981526020818152604091829020805460ff1916600117905581519081018b90526001600160a01b03898116928201929092528782166060820152868216608082015290851660a082015260c0810184905260e081018390526101000160408051601f1981840301815282825280516020918201205f8d8152600183528381208290556002909252919020309055915089907f7877d744a4e50f090548e692d9ed4cba7d2a2a5438414979cad508804a5c3c3890610460908b908b9088908c9089908d908d906107ce565b60405180910390a298975050505050505050565b336001600160a01b037f000000000000000000000000000000000000000000000000000000000000000016146104bd5760405163c64891a560e01b815260040160405180910390fd5b5f8881526020819052604090205460ff166104ee57604051631d46cb0560e01b815260048101899052602401610202565b5f8881526003602052604090205460ff16156105205760405163f91850d960e01b815260048101899052602401610202565b6040516323b872dd60e01b81526001600160a01b038716906323b872dd906105509086908890879060040161075a565b6020604051808303815f875af115801561056c573d5f803e3d5ffd5b505050506040513d601f19601f82011682018060405250810190610590919061077e565b6105b5578583858460405163cd3f165960e01b815260040161020294939291906107a4565b6040516323b872dd60e01b81526001600160a01b038616906323b872dd906105e59087908790869060040161075a565b6020604051808303815f875af1158015610601573d5f803e3d5ffd5b505050506040513d601f19601f82011682018060405250810190610625919061077e565b61064a578484848360405163cd3f165960e01b815260040161020294939291906107a4565b5f8881526003602052604090819020805460ff191660011790555188907f7877d744a4e50f090548e692d9ed4cba7d2a2a5438414979cad508804a5c3c38906106a0908a908a9087908b9088908b908d906107ce565b60405180910390a25050505050505050565b5f602082840312156106c2575f80fd5b5035919050565b80356001600160a01b03811681146106df575f80fd5b919050565b5f805f805f805f80610100898b0312156106fc575f80fd5b883597506020890135965061071360408a016106c9565b955061072160608a016106c9565b945061072f60808a016106c9565b935061073d60a08a016106c9565b925060c0890135915060e089013590509295985092959890939650565b6001600160a01b039384168152919092166020820152604081019190915260600190565b5f6020828403121561078e575f80fd5b8151801515811461079d575f80fd5b9392505050565b6001600160a01b039485168152928416602084015292166040820152606081019190915260800190565b9687526001600160a01b039586166020880152604087019490945291841660608601526080850152821660a08401521660c082015260e0019056fea264697066735822122040f0a97ba8d8408f04715c717639b319300215d246e5867b60bec0e4b824d42764736f6c63430008180033","linkReferences":{}},"methodIdentifiers":{"outcomeToRailTradeRef(bytes32)":"c2ad4f72","outcomeToTxHash(bytes32)":"b1beccbd","relayer()":"8406c079","reverse(bytes32,bytes32,address,address,address,address,uint256,uint256)":"ad3b80df","reversedOutcomes(bytes32)":"f671b1c2","settle(bytes32,bytes32,address,address,address,address,uint256,uint256)":"68525fa9","settledOutcomes(bytes32)":"0c48d1d2"},"id":0}